{"abi":[{"type":"constructor","inputs":[{"name":"_paymentToken","type":"address","internalType":"address"}],"stateMutability":"nonpayable"},{"type":"function","name":"createCrowdfund","inputs":[{"name":"_receiverAddress","type":"address","internalType":"address"},{"name":"_targetAmount","type":"uint256","internalType":"uint256"}],"outputs":[{"name":"","type":"address","internalType":"address"}],"stateMutability":"nonpayable"},{"type":"function","name":"crowdfunds","inputs":[{"name":"","type":"uint256","internalType":"uint256"}],"outputs":[{"name":"","type":"address","internalType":"address"}],"stateMutability":"view"},{"type":"function","name":"getCrowdfunds","inputs":[],"outputs":[{"name":"","type":"address[]","internalType":"address[]"}],"stateMutability":"view"},{"type":"function","name":"paymentToken","inputs":[],"outputs":[{"name":"","type":"address","internalType":"address"}],"stateMutability":"view"},{"type":"event","name":"CrowdfundCreated","inputs":[{"name":"crowdfund","type":"address","indexed":true,"internalType":"address"},{"name":"creator","type":"address","indexed":true,"internalType":"address"}],"anonymous":false}],"bytecode":{"object":"0x608060405234801561000f575f5ffd5b50604051611521380380611521833981810160405281019061003191906100d4565b805f5f6101000a81548173ffffffffffffffffffffffffffffffffffffffff021916908373ffffffffffffffffffffffffffffffffffffffff160217905550506100ff565b5f5ffd5b5f73ffffffffffffffffffffffffffffffffffffffff82169050919050565b5f6100a38261007a565b9050919050565b6100b381610099565b81146100bd575f5ffd5b50565b5f815190506100ce816100aa565b92915050565b5f602082840312156100e9576100e8610076565b5b5f6100f6848285016100c0565b91505092915050565b6114158061010c5f395ff3fe608060405234801561000f575f5ffd5b506004361061004a575f3560e01c806318b6f0a11461004e5780633013ce291461006c578063853a9d5e1461008a578063ac42b1d6146100ba575b5f5ffd5b6100566100ea565b60405161006391906103e5565b60405180910390f35b610074610175565b6040516100819190610414565b60405180910390f35b6100a4600480360381019061009f919061048e565b610199565b6040516100b19190610414565b60405180910390f35b6100d460048036038101906100cf91906104cc565b6102b6565b6040516100e19190610414565b60405180910390f35b6060600180548060200260200160405190810160405280929190818152602001828054801561016b57602002820191905f5260205f20905b815f9054906101000a900473ffffffffffffffffffffffffffffffffffffffff1673ffffffffffffffffffffffffffffffffffffffff1681526020019060010190808311610122575b5050505050905090565b5f5f9054906101000a900473ffffffffffffffffffffffffffffffffffffffff1681565b5f5f83835f5f9054906101000a900473ffffffffffffffffffffffffffffffffffffffff166040516101ca906102f1565b6101d693929190610561565b604051809103905ff0801580156101ef573d5f5f3e3d5ffd5b509050600181908060018154018082558091505060019003905f5260205f20015f9091909190916101000a81548173ffffffffffffffffffffffffffffffffffffffff021916908373ffffffffffffffffffffffffffffffffffffffff1602179055503373ffffffffffffffffffffffffffffffffffffffff168173ffffffffffffffffffffffffffffffffffffffff167fbd0e934d59e448ebc2880a71ab3a6cea543802acb1308033b5bccf6a7d8cf74f60405160405180910390a38091505092915050565b600181815481106102c5575f80fd5b905f5260205f20015f915054906101000a900473ffffffffffffffffffffffffffffffffffffffff1681565b610e498061059783390190565b5f81519050919050565b5f82825260208201905092915050565b5f819050602082019050919050565b5f73ffffffffffffffffffffffffffffffffffffffff82169050919050565b5f61035082610327565b9050919050565b61036081610346565b82525050565b5f6103718383610357565b60208301905092915050565b5f602082019050919050565b5f610393826102fe565b61039d8185610308565b93506103a883610318565b805f5b838110156103d85781516103bf8882610366565b97506103ca8361037d565b9250506001810190506103ab565b5085935050505092915050565b5f6020820190508181035f8301526103fd8184610389565b905092915050565b61040e81610346565b82525050565b5f6020820190506104275f830184610405565b92915050565b5f5ffd5b61043a81610346565b8114610444575f5ffd5b50565b5f8135905061045581610431565b92915050565b5f819050919050565b61046d8161045b565b8114610477575f5ffd5b50565b5f8135905061048881610464565b92915050565b5f5f604083850312156104a4576104a361042d565b5b5f6104b185828601610447565b92505060206104c28582860161047a565b9150509250929050565b5f602082840312156104e1576104e061042d565b5b5f6104ee8482850161047a565b91505092915050565b6105008161045b565b82525050565b5f819050919050565b5f61052961052461051f84610327565b610506565b610327565b9050919050565b5f61053a8261050f565b9050919050565b5f61054b82610530565b9050919050565b61055b81610541565b82525050565b5f6060820190506105745f830186610405565b61058160208301856104f7565b61058e6040830184610552565b94935050505056fe608060405234801561000f575f5ffd5b50604051610e49380380610e498339818101604052810190610031919061018b565b825f5f6101000a81548173ffffffffffffffffffffffffffffffffffffffff021916908373ffffffffffffffffffffffffffffffffffffffff160217905550816001819055508060025f6101000a81548173ffffffffffffffffffffffffffffffffffffffff021916908373ffffffffffffffffffffffffffffffffffffffff1602179055505050506101db565b5f5ffd5b5f73ffffffffffffffffffffffffffffffffffffffff82169050919050565b5f6100ec826100c3565b9050919050565b6100fc816100e2565b8114610106575f5ffd5b50565b5f81519050610117816100f3565b92915050565b5f819050919050565b61012f8161011d565b8114610139575f5ffd5b50565b5f8151905061014a81610126565b92915050565b5f61015a826100e2565b9050919050565b61016a81610150565b8114610174575f5ffd5b50565b5f8151905061018581610161565b92915050565b5f5f5f606084860312156101a2576101a16100bf565b5b5f6101af86828701610109565b93505060206101c08682870161013c565b92505060406101d186828701610177565b9150509250925092565b610c61806101e85f395ff3fe608060405234801561000f575f5ffd5b506004361061007b575f3560e01c8063c5c4744c11610059578063c5c4744c146100c5578063f14faf6f146100e3578063fa391c64146100ff578063fc0c546a1461011d5761007b565b806316fed3e21461007f5780633ccfd60b1461009d578063953b8fb8146100a7575b5f5ffd5b61008761013b565b60405161009491906107ce565b60405180910390f35b6100a561015f565b005b6100af6103f7565b6040516100bc91906107ff565b60405180910390f35b6100cd6103fd565b6040516100da91906107ff565b60405180910390f35b6100fd60048036038101906100f89190610846565b610403565b005b610107610581565b604051610114919061088b565b60405180910390f35b610125610594565b60405161013291906108ff565b60405180910390f35b5f5f9054906101000a900473ffffffffffffffffffffffffffffffffffffffff1681565b600260149054906101000a900460ff166101ae576040517f08c379a00000000000000000000000000000000000000000000000000000000081526004016101a590610972565b60405180910390fd5b5f5f9054906101000a900473ffffffffffffffffffffffffffffffffffffffff1673ffffffffffffffffffffffffffffffffffffffff163373ffffffffffffffffffffffffffffffffffffffff161461023c576040517f08c379a0000000000000000000000000000000000000000000000000000000008152600401610233906109da565b60405180910390fd5b5f60025f9054906101000a900473ffffffffffffffffffffffffffffffffffffffff1673ffffffffffffffffffffffffffffffffffffffff166370a08231306040518263ffffffff1660e01b815260040161029791906107ce565b602060405180830381865afa1580156102b2573d5f5f3e3d5ffd5b505050506040513d601f19601f820116820180604052508101906102d69190610a0c565b90505f811161031a576040517f08c379a000000000000000000000000000000000000000000000000000000000815260040161031190610a81565b60405180910390fd5b6103865f5f9054906101000a900473ffffffffffffffffffffffffffffffffffffffff168260025f9054906101000a900473ffffffffffffffffffffffffffffffffffffffff1673ffffffffffffffffffffffffffffffffffffffff166105b99092919063ffffffff16565b5f5f9054906101000a900473ffffffffffffffffffffffffffffffffffffffff1673ffffffffffffffffffffffffffffffffffffffff167f7084f5476618d8e60b11ef0d7d3f06914655adb8793e28ff7f018d4c76d505d5826040516103ec91906107ff565b60405180910390a250565b60015481565b60035481565b600260149054906101000a900460ff1615610453576040517f08c379a000000000000000000000000000000000000000000000000000000000815260040161044a90610ae9565b60405180910390fd5b5f8111610495576040517f08c379a000000000000000000000000000000000000000000000000000000000815260040161048c90610b51565b60405180910390fd5b6104e333308360025f9054906101000a900473ffffffffffffffffffffffffffffffffffffffff1673ffffffffffffffffffffffffffffffffffffffff16610638909392919063ffffffff16565b6104ef816001546106ba565b90508060035f8282546105029190610b9c565b9250508190555060015460035410610530576001600260146101000a81548160ff0219169083151502179055505b3373ffffffffffffffffffffffffffffffffffffffff167f2a01595cddf097c90216094025db714da3f4e5bd8877b56ba86a24ecead8e5438260405161057691906107ff565b60405180910390a250565b600260149054906101000a900460ff1681565b60025f9054906101000a900473ffffffffffffffffffffffffffffffffffffffff1681565b610633838473ffffffffffffffffffffffffffffffffffffffff1663a9059cbb85856040516024016105ec929190610bcf565b604051602081830303815290604052915060e01b6020820180517bffffffffffffffffffffffffffffffffffffffffffffffffffffffff83818316178352505050506106d0565b505050565b6106b4848573ffffffffffffffffffffffffffffffffffffffff166323b872dd86868660405160240161066d93929190610bf6565b604051602081830303815290604052915060e01b6020820180517bffffffffffffffffffffffffffffffffffffffffffffffffffffffff83818316178352505050506106d0565b50505050565b5f6106c8828410848461076b565b905092915050565b5f5f60205f8451602086015f885af1806106ef576040513d5f823e3d81fd5b3d92505f519150505f8214610708576001811415610723565b5f8473ffffffffffffffffffffffffffffffffffffffff163b145b1561076557836040517f5274afe700000000000000000000000000000000000000000000000000000000815260040161075c91906107ce565b60405180910390fd5b50505050565b5f61077584610784565b82841802821890509392505050565b5f8115159050919050565b5f73ffffffffffffffffffffffffffffffffffffffff82169050919050565b5f6107b88261078f565b9050919050565b6107c8816107ae565b82525050565b5f6020820190506107e15f8301846107bf565b92915050565b5f819050919050565b6107f9816107e7565b82525050565b5f6020820190506108125f8301846107f0565b92915050565b5f5ffd5b610825816107e7565b811461082f575f5ffd5b50565b5f813590506108408161081c565b92915050565b5f6020828403121561085b5761085a610818565b5b5f61086884828501610832565b91505092915050565b5f8115159050919050565b61088581610871565b82525050565b5f60208201905061089e5f83018461087c565b92915050565b5f819050919050565b5f6108c76108c26108bd8461078f565b6108a4565b61078f565b9050919050565b5f6108d8826108ad565b9050919050565b5f6108e9826108ce565b9050919050565b6108f9816108df565b82525050565b5f6020820190506109125f8301846108f0565b92915050565b5f82825260208201905092915050565b7f43726f776466756e64206e6f7420636f6d706c657465640000000000000000005f82015250565b5f61095c601783610918565b915061096782610928565b602082019050919050565b5f6020820190508181035f83015261098981610950565b9050919050565b7f4f6e6c79207265636569766572000000000000000000000000000000000000005f82015250565b5f6109c4600d83610918565b91506109cf82610990565b602082019050919050565b5f6020820190508181035f8301526109f1816109b8565b9050919050565b5f81519050610a068161081c565b92915050565b5f60208284031215610a2157610a20610818565b5b5f610a2e848285016109f8565b91505092915050565b7f4e6f2066756e647320746f2077697468647261770000000000000000000000005f82015250565b5f610a6b601483610918565b9150610a7682610a37565b602082019050919050565b5f6020820190508181035f830152610a9881610a5f565b9050919050565b7f43726f776466756e6420636f6d706c65746564000000000000000000000000005f82015250565b5f610ad3601383610918565b9150610ade82610a9f565b602082019050919050565b5f6020820190508181035f830152610b0081610ac7565b9050919050565b7f416d6f756e74206d757374206265203e203000000000000000000000000000005f82015250565b5f610b3b601283610918565b9150610b4682610b07565b602082019050919050565b5f6020820190508181035f830152610b6881610b2f565b9050919050565b7f4e487b71000000000000000000000000000000000000000000000000000000005f52601160045260245ffd5b5f610ba6826107e7565b9150610bb1836107e7565b9250828201905080821115610bc957610bc8610b6f565b5b92915050565b5f604082019050610be25f8301856107bf565b610bef60208301846107f0565b9392505050565b5f606082019050610c095f8301866107bf565b610c1660208301856107bf565b610c2360408301846107f0565b94935050505056fea2646970667358221220cde578bfed2a7cbf26b6b6337f764148ce0807286a4eb252533f47795157768764736f6c634300081e0033a26469706673582212202fd9dbdadb4a4643f838e13160e0db23416882d58ff8f482943bb1feaa306d3864736f6c634300081e0033","linkReferences":{}},"methodIdentifiers":{"createCrowdfund(address,uint256)":"853a9d5e","crowdfunds(uint256)":"ac42b1d6","getCrowdfunds()":"18b6f0a1","paymentToken()":"3013ce29"},"id":29}