{"abi":[{"type":"constructor","inputs":[],"stateMutability":"nonpayable"},{"type":"function","name":"DOMAIN_SEPARATOR","inputs":[],"outputs":[{"name":"","type":"bytes32","internalType":"bytes32"}],"stateMutability":"view"},{"type":"function","name":"allowance","inputs":[{"name":"owner","type":"address","internalType":"address"},{"name":"spender","type":"address","internalType":"address"}],"outputs":[{"name":"","type":"uint256","internalType":"uint256"}],"stateMutability":"view"},{"type":"function","name":"approve","inputs":[{"name":"spender","type":"address","internalType":"address"},{"name":"value","type":"uint256","internalType":"uint256"}],"outputs":[{"name":"","type":"bool","internalType":"bool"}],"stateMutability":"nonpayable"},{"type":"function","name":"balanceOf","inputs":[{"name":"account","type":"address","internalType":"address"}],"outputs":[{"name":"","type":"uint256","internalType":"uint256"}],"stateMutability":"view"},{"type":"function","name":"decimals","inputs":[],"outputs":[{"name":"","type":"uint8","internalType":"uint8"}],"stateMutability":"view"},{"type":"function","name":"eip712Domain","inputs":[],"outputs":[{"name":"fields","type":"bytes1","internalType":"bytes1"},{"name":"name","type":"string","internalType":"string"},{"name":"version","type":"string","internalType":"string"},{"name":"chainId","type":"uint256","internalType":"uint256"},{"name":"verifyingContract","type":"address","internalType":"address"},{"name":"salt","type":"bytes32","internalType":"bytes32"},{"name":"extensions","type":"uint256[]","internalType":"uint256[]"}],"stateMutability":"view"},{"type":"function","name":"mint","inputs":[{"name":"to","type":"address","internalType":"address"},{"name":"amount","type":"uint256","internalType":"uint256"}],"outputs":[],"stateMutability":"nonpayable"},{"type":"function","name":"name","inputs":[],"outputs":[{"name":"","type":"string","internalType":"string"}],"stateMutability":"view"},{"type":"function","name":"nonces","inputs":[{"name":"owner","type":"address","internalType":"address"}],"outputs":[{"name":"","type":"uint256","internalType":"uint256"}],"stateMutability":"view"},{"type":"function","name":"permit","inputs":[{"name":"owner","type":"address","internalType":"address"},{"name":"spender","type":"address","internalType":"address"},{"name":"value","type":"uint256","internalType":"uint256"},{"name":"deadline","type":"uint256","internalType":"uint256"},{"name":"v","type":"uint8","internalType":"uint8"},{"name":"r","type":"bytes32","internalType":"bytes32"},{"name":"s","type":"bytes32","internalType":"bytes32"}],"outputs":[],"stateMutability":"nonpayable"},{"type":"function","name":"symbol","inputs":[],"outputs":[{"name":"","type":"string","internalType":"string"}],"stateMutability":"view"},{"type":"function","name":"totalSupply","inputs":[],"outputs":[{"name":"","type":"uint256","internalType":"uint256"}],"stateMutability":"view"},{"type":"function","name":"transfer","inputs":[{"name":"to","type":"address","internalType":"address"},{"name":"value","type":"uint256","internalType":"uint256"}],"outputs":[{"name":"","type":"bool","internalType":"bool"}],"stateMutability":"nonpayable"},{"type":"function","name":"transferFrom","inputs":[{"name":"from","type":"address","internalType":"address"},{"name":"to","type":"address","internalType":"address"},{"name":"value","type":"uint256","internalType":"uint256"}],"outputs":[{"name":"","type":"bool","internalType":"bool"}],"stateMutability":"nonpayable"},{"type":"event","name":"Approval","inputs":[{"name":"owner","type":"address","indexed":true,"internalType":"address"},{"name":"spender","type":"address","indexed":true,"internalType":"address"},{"name":"value","type":"uint256","indexed":false,"internalType":"uint256"}],"anonymous":false},{"type":"event","name":"EIP712DomainChanged","inputs":[],"anonymous":false},{"type":"event","name":"Transfer","inputs":[{"name":"from","type":"address","indexed":true,"internalType":"address"},{"name":"to","type":"address","indexed":true,"internalType":"address"},{"name":"value","type":"uint256","indexed":false,"internalType":"uint256"}],"anonymous":false},{"type":"error","name":"ECDSAInvalidSignature","inputs":[]},{"type":"error","name":"ECDSAInvalidSignatureLength","inputs":[{"name":"length","type":"uint256","internalType":"uint256"}]},{"type":"error","name":"ECDSAInvalidSignatureS","inputs":[{"name":"s","type":"bytes32","internalType":"bytes32"}]},{"type":"error","name":"ERC20InsufficientAllowance","inputs":[{"name":"spender","type":"address","internalType":"address"},{"name":"allowance","type":"uint256","internalType":"uint256"},{"name":"needed","type":"uint256","internalType":"uint256"}]},{"type":"error","name":"ERC20InsufficientBalance","inputs":[{"name":"sender","type":"address","internalType":"address"},{"name":"balance","type":"uint256","internalType":"uint256"},{"name":"needed","type":"uint256","internalType":"uint256"}]},{"type":"error","name":"ERC20InvalidApprover","inputs":[{"name":"approver","type":"address","internalType":"address"}]},{"type":"error","name":"ERC20InvalidReceiver","inputs":[{"name":"receiver","type":"address","internalType":"address"}]},{"type":"error","name":"ERC20InvalidSender","inputs":[{"name":"sender","type":"address","internalType":"address"}]},{"type":"error","name":"ERC20InvalidSpender","inputs":[{"name":"spender","type":"address","internalType":"address"}]},{"type":"error","name":"ERC2612ExpiredSignature","inputs":[{"name":"deadline","type":"uint256","internalType":"uint256"}]},{"type":"error","name":"ERC2612InvalidSigner","inputs":[{"name":"signer","type":"address","internalType":"address"},{"name":"owner","type":"address","internalType":"address"}]},{"type":"error","name":"InvalidAccountNonce","inputs":[{"name":"account","type":"address","internalType":"address"},{"name":"currentNonce","type":"uint256","internalType":"uint256"}]},{"type":"error","name":"InvalidShortString","inputs":[]},{"type":"error","name":"StringTooLong","inputs":[{"name":"str","type":"string","internalType":"string"}]}],"bytecode":{"object":"0x610160604052348015610010575f5ffd5b506040518060400160405280600a81526020017f476f6f64446f6c6c617200000000000000000000000000000000000000000000815250806040518060400160405280600181526020017f31000000000000000000000000000000000000000000000000000000000000008152506040518060400160405280600a81526020017f476f6f64446f6c6c6172000000000000000000000000000000000000000000008152506040518060400160405280600281526020017f472400000000000000000000000000000000000000000000000000000000000081525081600390816100f9919061050e565b508060049081610109919061050e565b5050506101206005836101bc60201b90919060201c565b610120818152505061013c6006826101bc60201b90919060201c565b6101408181525050818051906020012060e08181525050808051906020012061010081815250504660a0818152505061017961020960201b60201c565b608081815250503073ffffffffffffffffffffffffffffffffffffffff1660c08173ffffffffffffffffffffffffffffffffffffffff16815250505050506107ad565b5f6020835110156101dd576101d68361026360201b60201c565b9050610203565b826101ed836102c860201b60201c565b5f0190816101fb919061050e565b5060ff5f1b90505b92915050565b5f7f8b73c3c69bb8fe3d512ecc4cf759cc79239f7b179b0ffacaa9a75d522b39400f60e051610100514630604051602001610248959493929190610643565b60405160208183030381529060405280519060200120905090565b5f5f829050601f815111156102af57826040517f305a27a90000000000000000000000000000000000000000000000000000000081526004016102a691906106fa565b60405180910390fd5b8051816102bb90610747565b5f1c175f1b915050919050565b5f819050919050565b5f81519050919050565b7f4e487b71000000000000000000000000000000000000000000000000000000005f52604160045260245ffd5b7f4e487b71000000000000000000000000000000000000000000000000000000005f52602260045260245ffd5b5f600282049050600182168061034c57607f821691505b60208210810361035f5761035e610308565b5b50919050565b5f819050815f5260205f209050919050565b5f6020601f8301049050919050565b5f82821b905092915050565b5f600883026103c17fffffffffffffffffffffffffffffffffffffffffffffffffffffffffffffffff82610386565b6103cb8683610386565b95508019841693508086168417925050509392505050565b5f819050919050565b5f819050919050565b5f61040f61040a610405846103e3565b6103ec565b6103e3565b9050919050565b5f819050919050565b610428836103f5565b61043c61043482610416565b848454610392565b825550505050565b5f5f905090565b610453610444565b61045e81848461041f565b505050565b5b81811015610481576104765f8261044b565b600181019050610464565b5050565b601f8211156104c65761049781610365565b6104a084610377565b810160208510156104af578190505b6104c36104bb85610377565b830182610463565b50505b505050565b5f82821c905092915050565b5f6104e65f19846008026104cb565b1980831691505092915050565b5f6104fe83836104d7565b9150826002028217905092915050565b610517826102d1565b67ffffffffffffffff8111156105305761052f6102db565b5b61053a8254610335565b610545828285610485565b5f60209050601f831160018114610576575f8415610564578287015190505b61056e85826104f3565b8655506105d5565b601f19841661058486610365565b5f5b828110156105ab57848901518255600182019150602085019450602081019050610586565b868310156105c857848901516105c4601f8916826104d7565b8355505b6001600288020188555050505b505050505050565b5f819050919050565b6105ef816105dd565b82525050565b6105fe816103e3565b82525050565b5f73ffffffffffffffffffffffffffffffffffffffff82169050919050565b5f61062d82610604565b9050919050565b61063d81610623565b82525050565b5f60a0820190506106565f8301886105e6565b61066360208301876105e6565b61067060408301866105e6565b61067d60608301856105f5565b61068a6080830184610634565b9695505050505050565b5f82825260208201905092915050565b8281835e5f83830152505050565b5f601f19601f8301169050919050565b5f6106cc826102d1565b6106d68185610694565b93506106e68185602086016106a4565b6106ef816106b2565b840191505092915050565b5f6020820190508181035f83015261071281846106c2565b905092915050565b5f81519050919050565b5f819050602082019050919050565b5f61073e82516105dd565b80915050919050565b5f6107518261071a565b8261075b84610724565b905061076681610733565b925060208210156107a6576107a17fffffffffffffffffffffffffffffffffffffffffffffffffffffffffffffffff83602003600802610386565b831692505b5050919050565b60805160a05160c05160e051610100516101205161014051611c196107fe5f395f610ada01525f610a9f01525f610fd301525f610fb201525f61091e01525f61097401525f61099d0152611c195ff3fe608060405234801561000f575f5ffd5b50600436106100e8575f3560e01c806370a082311161008a57806395d89b411161006457806395d89b4114610264578063a9059cbb14610282578063d505accf146102b2578063dd62ed3e146102ce576100e8565b806370a08231146101e05780637ecebe001461021057806384b0196e14610240576100e8565b806323b872dd116100c657806323b872dd14610158578063313ce567146101885780633644e515146101a657806340c10f19146101c4576100e8565b806306fdde03146100ec578063095ea7b31461010a57806318160ddd1461013a575b5f5ffd5b6100f46102fe565b6040516101019190611489565b60405180910390f35b610124600480360381019061011f919061153a565b61038e565b6040516101319190611592565b60405180910390f35b6101426103b0565b60405161014f91906115ba565b60405180910390f35b610172600480360381019061016d91906115d3565b6103b9565b60405161017f9190611592565b60405180910390f35b6101906103e7565b60405161019d919061163e565b60405180910390f35b6101ae6103ef565b6040516101bb919061166f565b60405180910390f35b6101de60048036038101906101d9919061153a565b6103fd565b005b6101fa60048036038101906101f59190611688565b61040b565b60405161020791906115ba565b60405180910390f35b61022a60048036038101906102259190611688565b610450565b60405161023791906115ba565b60405180910390f35b610248610461565b60405161025b97969594939291906117b3565b60405180910390f35b61026c610506565b6040516102799190611489565b60405180910390f35b61029c6004803603810190610297919061153a565b610596565b6040516102a99190611592565b60405180910390f35b6102cc60048036038101906102c79190611889565b6105b8565b005b6102e860048036038101906102e39190611926565b6106fd565b6040516102f591906115ba565b60405180910390f35b60606003805461030d90611991565b80601f016020809104026020016040519081016040528092919081815260200182805461033990611991565b80156103845780601f1061035b57610100808354040283529160200191610384565b820191905f5260205f20905b81548152906001019060200180831161036757829003601f168201915b5050505050905090565b5f5f61039861077f565b90506103a5818585610786565b600191505092915050565b5f600254905090565b5f5f6103c361077f565b90506103d0858285610798565b6103db85858561082b565b60019150509392505050565b5f6012905090565b5f6103f861091b565b905090565b61040782826109d1565b5050565b5f5f5f8373ffffffffffffffffffffffffffffffffffffffff1673ffffffffffffffffffffffffffffffffffffffff1681526020019081526020015f20549050919050565b5f61045a82610a50565b9050919050565b5f6060805f5f5f6060610472610a96565b61047a610ad1565b46305f5f1b5f67ffffffffffffffff811115610499576104986119c1565b5b6040519080825280602002602001820160405280156104c75781602001602082028036833780820191505090505b507f0f00000000000000000000000000000000000000000000000000000000000000959493929190965096509650965096509650965090919293949596565b60606004805461051590611991565b80601f016020809104026020016040519081016040528092919081815260200182805461054190611991565b801561058c5780601f106105635761010080835404028352916020019161058c565b820191905f5260205f20905b81548152906001019060200180831161056f57829003601f168201915b5050505050905090565b5f5f6105a061077f565b90506105ad81858561082b565b600191505092915050565b834211156105fd57836040517f627913020000000000000000000000000000000000000000000000000000000081526004016105f491906115ba565b60405180910390fd5b5f7f6e71edae12b1b97f4d1f60370fef10105fa2faae0126114a169c64845d6126c988888861062b8c610b0c565b89604051602001610641969594939291906119ee565b6040516020818303038152906040528051906020012090505f61066382610b5f565b90505f61067282878787610b78565b90508973ffffffffffffffffffffffffffffffffffffffff168173ffffffffffffffffffffffffffffffffffffffff16146106e657808a6040517f4b800e460000000000000000000000000000000000000000000000000000000081526004016106dd929190611a4d565b60405180910390fd5b6106f18a8a8a610786565b50505050505050505050565b5f60015f8473ffffffffffffffffffffffffffffffffffffffff1673ffffffffffffffffffffffffffffffffffffffff1681526020019081526020015f205f8373ffffffffffffffffffffffffffffffffffffffff1673ffffffffffffffffffffffffffffffffffffffff1681526020019081526020015f2054905092915050565b5f33905090565b6107938383836001610ba6565b505050565b5f6107a384846106fd565b90507fffffffffffffffffffffffffffffffffffffffffffffffffffffffffffffffff8110156108255781811015610816578281836040517ffb8f41b200000000000000000000000000000000000000000000000000000000815260040161080d93929190611a74565b60405180910390fd5b61082484848484035f610ba6565b5b50505050565b5f73ffffffffffffffffffffffffffffffffffffffff168373ffffffffffffffffffffffffffffffffffffffff160361089b575f6040517f96c6fd1e0000000000000000000000000000000000000000000000000000000081526004016108929190611aa9565b60405180910390fd5b5f73ffffffffffffffffffffffffffffffffffffffff168273ffffffffffffffffffffffffffffffffffffffff160361090b575f6040517fec442f050000000000000000000000000000000000000000000000000000000081526004016109029190611aa9565b60405180910390fd5b610916838383610d75565b505050565b5f7f000000000000000000000000000000000000000000000000000000000000000073ffffffffffffffffffffffffffffffffffffffff163073ffffffffffffffffffffffffffffffffffffffff1614801561099657507f000000000000000000000000000000000000000000000000000000000000000046145b156109c3577f000000000000000000000000000000000000000000000000000000000000000090506109ce565b6109cb610f8e565b90505b90565b5f73ffffffffffffffffffffffffffffffffffffffff168273ffffffffffffffffffffffffffffffffffffffff1603610a41575f6040517fec442f05000000000000000000000000000000000000000000000000000000008152600401610a389190611aa9565b60405180910390fd5b610a4c5f8383610d75565b5050565b5f60075f8373ffffffffffffffffffffffffffffffffffffffff1673ffffffffffffffffffffffffffffffffffffffff1681526020019081526020015f20549050919050565b6060610acc60057f000000000000000000000000000000000000000000000000000000000000000061102390919063ffffffff16565b905090565b6060610b0760067f000000000000000000000000000000000000000000000000000000000000000061102390919063ffffffff16565b905090565b5f60075f8373ffffffffffffffffffffffffffffffffffffffff1673ffffffffffffffffffffffffffffffffffffffff1681526020019081526020015f205f815480929190600101919050559050919050565b5f610b71610b6b61091b565b836110d0565b9050919050565b5f5f5f5f610b8888888888611110565b925092509250610b9882826111f7565b829350505050949350505050565b5f73ffffffffffffffffffffffffffffffffffffffff168473ffffffffffffffffffffffffffffffffffffffff1603610c16575f6040517fe602df05000000000000000000000000000000000000000000000000000000008152600401610c0d9190611aa9565b60405180910390fd5b5f73ffffffffffffffffffffffffffffffffffffffff168373ffffffffffffffffffffffffffffffffffffffff1603610c86575f6040517f94280d62000000000000000000000000000000000000000000000000000000008152600401610c7d9190611aa9565b60405180910390fd5b8160015f8673ffffffffffffffffffffffffffffffffffffffff1673ffffffffffffffffffffffffffffffffffffffff1681526020019081526020015f205f8573ffffffffffffffffffffffffffffffffffffffff1673ffffffffffffffffffffffffffffffffffffffff1681526020019081526020015f20819055508015610d6f578273ffffffffffffffffffffffffffffffffffffffff168473ffffffffffffffffffffffffffffffffffffffff167f8c5be1e5ebec7d5bd14f71427d1e84f3dd0314c0f7b2291e5b200ac8c7c3b92584604051610d6691906115ba565b60405180910390a35b50505050565b5f73ffffffffffffffffffffffffffffffffffffffff168373ffffffffffffffffffffffffffffffffffffffff1603610dc5578060025f828254610db99190611aef565b92505081905550610e93565b5f5f5f8573ffffffffffffffffffffffffffffffffffffffff1673ffffffffffffffffffffffffffffffffffffffff1681526020019081526020015f2054905081811015610e4e578381836040517fe450d38c000000000000000000000000000000000000000000000000000000008152600401610e4593929190611a74565b60405180910390fd5b8181035f5f8673ffffffffffffffffffffffffffffffffffffffff1673ffffffffffffffffffffffffffffffffffffffff1681526020019081526020015f2081905550505b5f73ffffffffffffffffffffffffffffffffffffffff168273ffffffffffffffffffffffffffffffffffffffff1603610eda578060025f8282540392505081905550610f24565b805f5f8473ffffffffffffffffffffffffffffffffffffffff1673ffffffffffffffffffffffffffffffffffffffff1681526020019081526020015f205f82825401925050819055505b8173ffffffffffffffffffffffffffffffffffffffff168373ffffffffffffffffffffffffffffffffffffffff167fddf252ad1be2c89b69c2b068fc378daa952ba7f163c4a11628f55a4df523b3ef83604051610f8191906115ba565b60405180910390a3505050565b5f7f8b73c3c69bb8fe3d512ecc4cf759cc79239f7b179b0ffacaa9a75d522b39400f7f00000000000000000000000000000000000000000000000000000000000000007f00000000000000000000000000000000000000000000000000000000000000004630604051602001611008959493929190611b22565b60405160208183030381529060405280519060200120905090565b606060ff5f1b831461103f5761103883611359565b90506110ca565b81805461104b90611991565b80601f016020809104026020016040519081016040528092919081815260200182805461107790611991565b80156110c25780601f10611099576101008083540402835291602001916110c2565b820191905f5260205f20905b8154815290600101906020018083116110a557829003601f168201915b505050505090505b92915050565b5f6040517f190100000000000000000000000000000000000000000000000000000000000081528360028201528260228201526042812091505092915050565b5f5f5f7f7fffffffffffffffffffffffffffffff5d576e7357a4501ddfe92f46681b20a0845f1c111561114c575f6003859250925092506111ed565b5f6001888888886040515f815260200160405260405161116f9493929190611b73565b6020604051602081039080840390855afa15801561118f573d5f5f3e3d5ffd5b5050506020604051035190505f73ffffffffffffffffffffffffffffffffffffffff168173ffffffffffffffffffffffffffffffffffffffff16036111e0575f60015f5f1b935093509350506111ed565b805f5f5f1b935093509350505b9450945094915050565b5f600381111561120a57611209611bb6565b5b82600381111561121d5761121c611bb6565b5b0315611355576001600381111561123757611236611bb6565b5b82600381111561124a57611249611bb6565b5b03611281576040517ff645eedf00000000000000000000000000000000000000000000000000000000815260040160405180910390fd5b6002600381111561129557611294611bb6565b5b8260038111156112a8576112a7611bb6565b5b036112ec57805f1c6040517ffce698f70000000000000000000000000000000000000000000000000000000081526004016112e391906115ba565b60405180910390fd5b6003808111156112ff576112fe611bb6565b5b82600381111561131257611311611bb6565b5b0361135457806040517fd78bce0c00000000000000000000000000000000000000000000000000000000815260040161134b919061166f565b60405180910390fd5b5b5050565b60605f611365836113cb565b90505f602067ffffffffffffffff811115611383576113826119c1565b5b6040519080825280601f01601f1916602001820160405280156113b55781602001600182028036833780820191505090505b5090508181528360208201528092505050919050565b5f5f60ff835f1c169050601f811115611410576040517fb3512b0c00000000000000000000000000000000000000000000000000000000815260040160405180910390fd5b80915050919050565b5f81519050919050565b5f82825260208201905092915050565b8281835e5f83830152505050565b5f601f19601f8301169050919050565b5f61145b82611419565b6114658185611423565b9350611475818560208601611433565b61147e81611441565b840191505092915050565b5f6020820190508181035f8301526114a18184611451565b905092915050565b5f5ffd5b5f73ffffffffffffffffffffffffffffffffffffffff82169050919050565b5f6114d6826114ad565b9050919050565b6114e6816114cc565b81146114f0575f5ffd5b50565b5f81359050611501816114dd565b92915050565b5f819050919050565b61151981611507565b8114611523575f5ffd5b50565b5f8135905061153481611510565b92915050565b5f5f604083850312156115505761154f6114a9565b5b5f61155d858286016114f3565b925050602061156e85828601611526565b9150509250929050565b5f8115159050919050565b61158c81611578565b82525050565b5f6020820190506115a55f830184611583565b92915050565b6115b481611507565b82525050565b5f6020820190506115cd5f8301846115ab565b92915050565b5f5f5f606084860312156115ea576115e96114a9565b5b5f6115f7868287016114f3565b9350506020611608868287016114f3565b925050604061161986828701611526565b9150509250925092565b5f60ff82169050919050565b61163881611623565b82525050565b5f6020820190506116515f83018461162f565b92915050565b5f819050919050565b61166981611657565b82525050565b5f6020820190506116825f830184611660565b92915050565b5f6020828403121561169d5761169c6114a9565b5b5f6116aa848285016114f3565b91505092915050565b5f7fff0000000000000000000000000000000000000000000000000000000000000082169050919050565b6116e7816116b3565b82525050565b6116f6816114cc565b82525050565b5f81519050919050565b5f82825260208201905092915050565b5f819050602082019050919050565b61172e81611507565b82525050565b5f61173f8383611725565b60208301905092915050565b5f602082019050919050565b5f611761826116fc565b61176b8185611706565b935061177683611716565b805f5b838110156117a657815161178d8882611734565b97506117988361174b565b925050600181019050611779565b5085935050505092915050565b5f60e0820190506117c65f83018a6116de565b81810360208301526117d88189611451565b905081810360408301526117ec8188611451565b90506117fb60608301876115ab565b61180860808301866116ed565b61181560a0830185611660565b81810360c08301526118278184611757565b905098975050505050505050565b61183e81611623565b8114611848575f5ffd5b50565b5f8135905061185981611835565b92915050565b61186881611657565b8114611872575f5ffd5b50565b5f813590506118838161185f565b92915050565b5f5f5f5f5f5f5f60e0888a0312156118a4576118a36114a9565b5b5f6118b18a828b016114f3565b97505060206118c28a828b016114f3565b96505060406118d38a828b01611526565b95505060606118e48a828b01611526565b94505060806118f58a828b0161184b565b93505060a06119068a828b01611875565b92505060c06119178a828b01611875565b91505092959891949750929550565b5f5f6040838503121561193c5761193b6114a9565b5b5f611949858286016114f3565b925050602061195a858286016114f3565b9150509250929050565b7f4e487b71000000000000000000000000000000000000000000000000000000005f52602260045260245ffd5b5f60028204905060018216806119a857607f821691505b6020821081036119bb576119ba611964565b5b50919050565b7f4e487b71000000000000000000000000000000000000000000000000000000005f52604160045260245ffd5b5f60c082019050611a015f830189611660565b611a0e60208301886116ed565b611a1b60408301876116ed565b611a2860608301866115ab565b611a3560808301856115ab565b611a4260a08301846115ab565b979650505050505050565b5f604082019050611a605f8301856116ed565b611a6d60208301846116ed565b9392505050565b5f606082019050611a875f8301866116ed565b611a9460208301856115ab565b611aa160408301846115ab565b949350505050565b5f602082019050611abc5f8301846116ed565b92915050565b7f4e487b71000000000000000000000000000000000000000000000000000000005f52601160045260245ffd5b5f611af982611507565b9150611b0483611507565b9250828201905080821115611b1c57611b1b611ac2565b5b92915050565b5f60a082019050611b355f830188611660565b611b426020830187611660565b611b4f6040830186611660565b611b5c60608301856115ab565b611b6960808301846116ed565b9695505050505050565b5f608082019050611b865f830187611660565b611b93602083018661162f565b611ba06040830185611660565b611bad6060830184611660565b95945050505050565b7f4e487b71000000000000000000000000000000000000000000000000000000005f52602160045260245ffdfea2646970667358221220c86e666d1b31dcb907b63cacf6a5b1b8da8f25f87a924bd386f3d42bdc47bf8f64736f6c634300081e0033","linkReferences":{}},"methodIdentifiers":{"DOMAIN_SEPARATOR()":"3644e515","allowance(address,address)":"dd62ed3e","approve(address,uint256)":"095ea7b3","balanceOf(address)":"70a08231","decimals()":"313ce567","eip712Domain()":"84b0196e","mint(address,uint256)":"40c10f19","name()":"06fdde03","nonces(address)":"7ecebe00","permit(address,address,uint256,uint256,uint8,bytes32,bytes32)":"d505accf","symbol()":"95d89b41","totalSupply()":"18160ddd","transfer(address,uint256)":"a9059cbb","transferFrom(address,address,uint256)":"23b872dd"},"id":42}